{
  "_format": "hh-sol-artifact-1",
  "contractName": "NFTMarketplace",
  "sourceName": "contracts/NFTMarketplace.sol",
  "abi": [
    {
      "inputs": [],
      "stateMutability": "nonpayable",
      "type": "constructor"
    },
    {
      "inputs": [
        {
          "internalType": "address",
          "name": "sender",
          "type": "address"
        },
        {
          "internalType": "uint256",
          "name": "tokenId",
          "type": "uint256"
        },
        {
          "internalType": "address",
          "name": "owner",
          "type": "address"
        }
      ],
      "name": "ERC721IncorrectOwner",
      "type": "error"
    },
    {
      "inputs": [
        {
          "internalType": "address",
          "name": "operator",
          "type": "address"
        },
        {
          "internalType": "uint256",
          "name": "tokenId",
          "type": "uint256"
        }
      ],
      "name": "ERC721InsufficientApproval",
      "type": "error"
    },
    {
      "inputs": [
        {
          "internalType": "address",
          "name": "approver",
          "type": "address"
        }
      ],
      "name": "ERC721InvalidApprover",
      "type": "error"
    },
    {
      "inputs": [
        {
          "internalType": "address",
          "name": "operator",
          "type": "address"
        }
      ],
      "name": "ERC721InvalidOperator",
      "type": "error"
    },
    {
      "inputs": [
        {
          "internalType": "address",
          "name": "owner",
          "type": "address"
        }
      ],
      "name": "ERC721InvalidOwner",
      "type": "error"
    },
    {
      "inputs": [
        {
          "internalType": "address",
          "name": "receiver",
          "type": "address"
        }
      ],
      "name": "ERC721InvalidReceiver",
      "type": "error"
    },
    {
      "inputs": [
        {
          "internalType": "address",
          "name": "sender",
          "type": "address"
        }
      ],
      "name": "ERC721InvalidSender",
      "type": "error"
    },
    {
      "inputs": [
        {
          "internalType": "uint256",
          "name": "tokenId",
          "type": "uint256"
        }
      ],
      "name": "ERC721NonexistentToken",
      "type": "error"
    },
    {
      "anonymous": false,
      "inputs": [
        {
          "indexed": true,
          "internalType": "address",
          "name": "owner",
          "type": "address"
        },
        {
          "indexed": true,
          "internalType": "address",
          "name": "approved",
          "type": "address"
        },
        {
          "indexed": true,
          "internalType": "uint256",
          "name": "tokenId",
          "type": "uint256"
        }
      ],
      "name": "Approval",
      "type": "event"
    },
    {
      "anonymous": false,
      "inputs": [
        {
          "indexed": true,
          "internalType": "address",
          "name": "owner",
          "type": "address"
        },
        {
          "indexed": true,
          "internalType": "address",
          "name": "operator",
          "type": "address"
        },
        {
          "indexed": false,
          "internalType": "bool",
          "name": "approved",
          "type": "bool"
        }
      ],
      "name": "ApprovalForAll",
      "type": "event"
    },
    {
      "anonymous": false,
      "inputs": [
        {
          "indexed": false,
          "internalType": "uint256",
          "name": "_fromTokenId",
          "type": "uint256"
        },
        {
          "indexed": false,
          "internalType": "uint256",
          "name": "_toTokenId",
          "type": "uint256"
        }
      ],
      "name": "BatchMetadataUpdate",
      "type": "event"
    },
    {
      "anonymous": false,
      "inputs": [
        {
          "indexed": false,
          "internalType": "uint256",
          "name": "_tokenId",
          "type": "uint256"
        }
      ],
      "name": "MetadataUpdate",
      "type": "event"
    },
    {
      "anonymous": false,
      "inputs": [
        {
          "indexed": true,
          "internalType": "uint256",
          "name": "tokenId",
          "type": "uint256"
        },
        {
          "indexed": false,
          "internalType": "address",
          "name": "owner",
          "type": "address"
        },
        {
          "indexed": false,
          "internalType": "address",
          "name": "seller",
          "type": "address"
        },
        {
          "indexed": false,
          "internalType": "uint256",
          "name": "price",
          "type": "uint256"
        },
        {
          "indexed": false,
          "internalType": "bool",
          "name": "currentlyListed",
          "type": "bool"
        }
      ],
      "name": "TokenListedSuccess",
      "type": "event"
    },
    {
      "anonymous": false,
      "inputs": [
        {
          "indexed": true,
          "internalType": "address",
          "name": "from",
          "type": "address"
        },
        {
          "indexed": true,
          "internalType": "address",
          "name": "to",
          "type": "address"
        },
        {
          "indexed": true,
          "internalType": "uint256",
          "name": "tokenId",
          "type": "uint256"
        }
      ],
      "name": "Transfer",
      "type": "event"
    },
    {
      "inputs": [
        {
          "internalType": "address",
          "name": "to",
          "type": "address"
        },
        {
          "internalType": "uint256",
          "name": "tokenId",
          "type": "uint256"
        }
      ],
      "name": "approve",
      "outputs": [],
      "stateMutability": "nonpayable",
      "type": "function"
    },
    {
      "inputs": [
        {
          "internalType": "address",
          "name": "owner",
          "type": "address"
        }
      ],
      "name": "balanceOf",
      "outputs": [
        {
          "internalType": "uint256",
          "name": "",
          "type": "uint256"
        }
      ],
      "stateMutability": "view",
      "type": "function"
    },
    {
      "inputs": [
        {
          "internalType": "string",
          "name": "tokenURI",
          "type": "string"
        },
        {
          "internalType": "uint256",
          "name": "price",
          "type": "uint256"
        }
      ],
      "name": "createToken",
      "outputs": [
        {
          "internalType": "uint256",
          "name": "",
          "type": "uint256"
        }
      ],
      "stateMutability": "payable",
      "type": "function"
    },
    {
      "inputs": [
        {
          "internalType": "uint256",
          "name": "tokenId",
          "type": "uint256"
        }
      ],
      "name": "executeSale",
      "outputs": [],
      "stateMutability": "payable",
      "type": "function"
    },
    {
      "inputs": [],
      "name": "getAllNFTs",
      "outputs": [
        {
          "components": [
            {
              "internalType": "uint256",
              "name": "tokenId",
              "type": "uint256"
            },
            {
              "internalType": "address payable",
              "name": "owner",
              "type": "address"
            },
            {
              "internalType": "address payable",
              "name": "seller",
              "type": "address"
            },
            {
              "internalType": "uint256",
              "name": "price",
              "type": "uint256"
            },
            {
              "internalType": "bool",
              "name": "currentlyListed",
              "type": "bool"
            }
          ],
          "internalType": "struct NFTMarketplace.ListedToken[]",
          "name": "",
          "type": "tuple[]"
        }
      ],
      "stateMutability": "view",
      "type": "function"
    },
    {
      "inputs": [
        {
          "internalType": "uint256",
          "name": "tokenId",
          "type": "uint256"
        }
      ],
      "name": "getApproved",
      "outputs": [
        {
          "internalType": "address",
          "name": "",
          "type": "address"
        }
      ],
      "stateMutability": "view",
      "type": "function"
    },
    {
      "inputs": [],
      "name": "getCurrentToken",
      "outputs": [
        {
          "internalType": "uint256",
          "name": "",
          "type": "uint256"
        }
      ],
      "stateMutability": "view",
      "type": "function"
    },
    {
      "inputs": [],
      "name": "getLatestIdToListedToken",
      "outputs": [
        {
          "components": [
            {
              "internalType": "uint256",
              "name": "tokenId",
              "type": "uint256"
            },
            {
              "internalType": "address payable",
              "name": "owner",
              "type": "address"
            },
            {
              "internalType": "address payable",
              "name": "seller",
              "type": "address"
            },
            {
              "internalType": "uint256",
              "name": "price",
              "type": "uint256"
            },
            {
              "internalType": "bool",
              "name": "currentlyListed",
              "type": "bool"
            }
          ],
          "internalType": "struct NFTMarketplace.ListedToken",
          "name": "",
          "type": "tuple"
        }
      ],
      "stateMutability": "view",
      "type": "function"
    },
    {
      "inputs": [],
      "name": "getListPrice",
      "outputs": [
        {
          "internalType": "uint256",
          "name": "",
          "type": "uint256"
        }
      ],
      "stateMutability": "view",
      "type": "function"
    },
    {
      "inputs": [
        {
          "internalType": "uint256",
          "name": "tokenId",
          "type": "uint256"
        }
      ],
      "name": "getListedTokenForId",
      "outputs": [
        {
          "components": [
            {
              "internalType": "uint256",
              "name": "tokenId",
              "type": "uint256"
            },
            {
              "internalType": "address payable",
              "name": "owner",
              "type": "address"
            },
            {
              "internalType": "address payable",
              "name": "seller",
              "type": "address"
            },
            {
              "internalType": "uint256",
              "name": "price",
              "type": "uint256"
            },
            {
              "internalType": "bool",
              "name": "currentlyListed",
              "type": "bool"
            }
          ],
          "internalType": "struct NFTMarketplace.ListedToken",
          "name": "",
          "type": "tuple"
        }
      ],
      "stateMutability": "view",
      "type": "function"
    },
    {
      "inputs": [],
      "name": "getMyNFTs",
      "outputs": [
        {
          "components": [
            {
              "internalType": "uint256",
              "name": "tokenId",
              "type": "uint256"
            },
            {
              "internalType": "address payable",
              "name": "owner",
              "type": "address"
            },
            {
              "internalType": "address payable",
              "name": "seller",
              "type": "address"
            },
            {
              "internalType": "uint256",
              "name": "price",
              "type": "uint256"
            },
            {
              "internalType": "bool",
              "name": "currentlyListed",
              "type": "bool"
            }
          ],
          "internalType": "struct NFTMarketplace.ListedToken[]",
          "name": "",
          "type": "tuple[]"
        }
      ],
      "stateMutability": "view",
      "type": "function"
    },
    {
      "inputs": [
        {
          "internalType": "address",
          "name": "owner",
          "type": "address"
        },
        {
          "internalType": "address",
          "name": "operator",
          "type": "address"
        }
      ],
      "name": "isApprovedForAll",
      "outputs": [
        {
          "internalType": "bool",
          "name": "",
          "type": "bool"
        }
      ],
      "stateMutability": "view",
      "type": "function"
    },
    {
      "inputs": [],
      "name": "name",
      "outputs": [
        {
          "internalType": "string",
          "name": "",
          "type": "string"
        }
      ],
      "stateMutability": "view",
      "type": "function"
    },
    {
      "inputs": [
        {
          "internalType": "uint256",
          "name": "tokenId",
          "type": "uint256"
        }
      ],
      "name": "ownerOf",
      "outputs": [
        {
          "internalType": "address",
          "name": "",
          "type": "address"
        }
      ],
      "stateMutability": "view",
      "type": "function"
    },
    {
      "inputs": [
        {
          "internalType": "address",
          "name": "from",
          "type": "address"
        },
        {
          "internalType": "address",
          "name": "to",
          "type": "address"
        },
        {
          "internalType": "uint256",
          "name": "tokenId",
          "type": "uint256"
        }
      ],
      "name": "safeTransferFrom",
      "outputs": [],
      "stateMutability": "nonpayable",
      "type": "function"
    },
    {
      "inputs": [
        {
          "internalType": "address",
          "name": "from",
          "type": "address"
        },
        {
          "internalType": "address",
          "name": "to",
          "type": "address"
        },
        {
          "internalType": "uint256",
          "name": "tokenId",
          "type": "uint256"
        },
        {
          "internalType": "bytes",
          "name": "data",
          "type": "bytes"
        }
      ],
      "name": "safeTransferFrom",
      "outputs": [],
      "stateMutability": "nonpayable",
      "type": "function"
    },
    {
      "inputs": [
        {
          "internalType": "address",
          "name": "operator",
          "type": "address"
        },
        {
          "internalType": "bool",
          "name": "approved",
          "type": "bool"
        }
      ],
      "name": "setApprovalForAll",
      "outputs": [],
      "stateMutability": "nonpayable",
      "type": "function"
    },
    {
      "inputs": [
        {
          "internalType": "bytes4",
          "name": "interfaceId",
          "type": "bytes4"
        }
      ],
      "name": "supportsInterface",
      "outputs": [
        {
          "internalType": "bool",
          "name": "",
          "type": "bool"
        }
      ],
      "stateMutability": "view",
      "type": "function"
    },
    {
      "inputs": [],
      "name": "symbol",
      "outputs": [
        {
          "internalType": "string",
          "name": "",
          "type": "string"
        }
      ],
      "stateMutability": "view",
      "type": "function"
    },
    {
      "inputs": [
        {
          "internalType": "uint256",
          "name": "tokenId",
          "type": "uint256"
        }
      ],
      "name": "tokenURI",
      "outputs": [
        {
          "internalType": "string",
          "name": "",
          "type": "string"
        }
      ],
      "stateMutability": "view",
      "type": "function"
    },
    {
      "inputs": [
        {
          "internalType": "address",
          "name": "from",
          "type": "address"
        },
        {
          "internalType": "address",
          "name": "to",
          "type": "address"
        },
        {
          "internalType": "uint256",
          "name": "tokenId",
          "type": "uint256"
        }
      ],
      "name": "transferFrom",
      "outputs": [],
      "stateMutability": "nonpayable",
      "type": "function"
    },
    {
      "inputs": [
        {
          "internalType": "uint256",
          "name": "_listPrice",
          "type": "uint256"
        }
      ],
      "name": "updateListPrice",
      "outputs": [],
      "stateMutability": "payable",
      "type": "function"
    }
  ],
  "bytecode": "0x6080604052662386f26fc10000600a553480156200001c57600080fd5b506040518060400160405280600e81526020017f4e46544d61726b6574706c6163650000000000000000000000000000000000008152506040518060400160405280600481526020017f4e46544d0000000000000000000000000000000000000000000000000000000081525081600090816200009a919062000370565b508060019081620000ac919062000370565b50505033600960006101000a81548173ffffffffffffffffffffffffffffffffffffffff021916908373ffffffffffffffffffffffffffffffffffffffff16021790555062000457565b600081519050919050565b7f4e487b7100000000000000000000000000000000000000000000000000000000600052604160045260246000fd5b7f4e487b7100000000000000000000000000000000000000000000000000000000600052602260045260246000fd5b600060028204905060018216806200017857607f821691505b6020821081036200018e576200018d62000130565b5b50919050565b60008190508160005260206000209050919050565b60006020601f8301049050919050565b600082821b905092915050565b600060088302620001f87fffffffffffffffffffffffffffffffffffffffffffffffffffffffffffffffff82620001b9565b620002048683620001b9565b95508019841693508086168417925050509392505050565b6000819050919050565b6000819050919050565b6000620002516200024b62000245846200021c565b62000226565b6200021c565b9050919050565b6000819050919050565b6200026d8362000230565b620002856200027c8262000258565b848454620001c6565b825550505050565b600090565b6200029c6200028d565b620002a981848462000262565b505050565b5b81811015620002d157620002c560008262000292565b600181019050620002af565b5050565b601f8211156200032057620002ea8162000194565b620002f584620001a9565b8101602085101562000305578190505b6200031d6200031485620001a9565b830182620002ae565b50505b505050565b600082821c905092915050565b6000620003456000198460080262000325565b1980831691505092915050565b600062000360838362000332565b9150826002028217905092915050565b6200037b82620000f6565b67ffffffffffffffff81111562000397576200039662000101565b5b620003a382546200015f565b620003b0828285620002d5565b600060209050601f831160018114620003e85760008415620003d3578287015190505b620003df858262000352565b8655506200044f565b601f198416620003f88662000194565b60005b828110156200042257848901518255600182019150602085019450602081019050620003fb565b868310156200044257848901516200043e601f89168262000332565b8355505b6001600288020188555050505b505050505050565b61396480620004676000396000f3fe6080604052600436106101355760003560e01c80638e264590116100ab578063c322579c1161006f578063c322579c14610430578063c87b56dd1461044c578063d1a88ae514610489578063e0391b09146104b4578063e985e9c5146104df578063ef2d17461461051c57610135565b80638e2645901461035a57806395d89b41146103975780639b1225c4146103c2578063a22cb465146103de578063b88d4fde1461040757610135565b806342842e0e116100fd57806342842e0e14610231578063629cb2e41461025a5780636352211e1461028557806368f1945f146102c257806370a08231146102ed57806372b3b6201461032a57610135565b806301ffc9a71461013a57806306fdde0314610177578063081812fc146101a2578063095ea7b3146101df57806323b872dd14610208575b600080fd5b34801561014657600080fd5b50610161600480360381019061015c91906128d1565b610547565b60405161016e9190612919565b60405180910390f35b34801561018357600080fd5b5061018c6105a8565b60405161019991906129c4565b60405180910390f35b3480156101ae57600080fd5b506101c960048036038101906101c49190612a1c565b61063a565b6040516101d69190612a8a565b60405180910390f35b3480156101eb57600080fd5b5061020660048036038101906102019190612ad1565b610656565b005b34801561021457600080fd5b5061022f600480360381019061022a9190612b11565b61066c565b005b34801561023d57600080fd5b5061025860048036038101906102539190612b11565b61076e565b005b34801561026657600080fd5b5061026f61078e565b60405161027c9190612cba565b60405180910390f35b34801561029157600080fd5b506102ac60048036038101906102a79190612a1c565b610b68565b6040516102b99190612a8a565b60405180910390f35b3480156102ce57600080fd5b506102d7610b7a565b6040516102e49190612ceb565b60405180910390f35b3480156102f957600080fd5b50610314600480360381019061030f9190612d06565b610b84565b6040516103219190612ceb565b60405180910390f35b610344600480360381019061033f9190612e68565b610c3e565b6040516103519190612ceb565b60405180910390f35b34801561036657600080fd5b50610381600480360381019061037c9190612a1c565b610c89565b60405161038e9190612f2c565b60405180910390f35b3480156103a357600080fd5b506103ac610d91565b6040516103b991906129c4565b60405180910390f35b6103dc60048036038101906103d79190612a1c565b610e23565b005b3480156103ea57600080fd5b5061040560048036038101906104009190612f73565b611025565b005b34801561041357600080fd5b5061042e60048036038101906104299190613054565b61103b565b005b61044a60048036038101906104459190612a1c565b611058565b005b34801561045857600080fd5b50610473600480360381019061046e9190612a1c565b6110f2565b60405161048091906129c4565b60405180910390f35b34801561049557600080fd5b5061049e611205565b6040516104ab9190612f2c565b60405180910390f35b3480156104c057600080fd5b506104c961130d565b6040516104d69190612cba565b60405180910390f35b3480156104eb57600080fd5b50610506600480360381019061050191906130d7565b6114d8565b6040516105139190612919565b60405180910390f35b34801561052857600080fd5b5061053161156c565b60405161053e9190612ceb565b60405180910390f35b6000634906490660e01b7bffffffffffffffffffffffffffffffffffffffffffffffffffffffff1916827bffffffffffffffffffffffffffffffffffffffffffffffffffffffff191614806105a157506105a082611576565b5b9050919050565b6060600080546105b790613146565b80601f01602080910402602001604051908101604052809291908181526020018280546105e390613146565b80156106305780601f1061060557610100808354040283529160200191610630565b820191906000526020600020905b81548152906001019060200180831161061357829003601f168201915b5050505050905090565b600061064582611658565b5061064f826116e0565b9050919050565b610668828261066361171d565b611725565b5050565b600073ffffffffffffffffffffffffffffffffffffffff168273ffffffffffffffffffffffffffffffffffffffff16036106de5760006040517f64a0ae920000000000000000000000000000000000000000000000000000000081526004016106d59190612a8a565b60405180910390fd5b60006106f283836106ed61171d565b611737565b90508373ffffffffffffffffffffffffffffffffffffffff168173ffffffffffffffffffffffffffffffffffffffff1614610768578382826040517f64283d7b00000000000000000000000000000000000000000000000000000000815260040161075f93929190613177565b60405180910390fd5b50505050565b6107898383836040518060200160405280600081525061103b565b505050565b606060006007549050600080600080600090505b848110156108bb573373ffffffffffffffffffffffffffffffffffffffff16600b60006001846107d291906131dd565b815260200190815260200160002060010160009054906101000a900473ffffffffffffffffffffffffffffffffffffffff1673ffffffffffffffffffffffffffffffffffffffff16148061089357503373ffffffffffffffffffffffffffffffffffffffff16600b600060018461084991906131dd565b815260200190815260200160002060020160009054906101000a900473ffffffffffffffffffffffffffffffffffffffff1673ffffffffffffffffffffffffffffffffffffffff16145b156108a8576001846108a591906131dd565b93505b80806108b390613211565b9150506107a2565b5060008367ffffffffffffffff8111156108d8576108d7612d3d565b5b60405190808252806020026020018201604052801561091157816020015b6108fe612808565b8152602001906001900390816108f65790505b50905060005b85811015610b5c573373ffffffffffffffffffffffffffffffffffffffff16600b600060018461094791906131dd565b815260200190815260200160002060010160009054906101000a900473ffffffffffffffffffffffffffffffffffffffff1673ffffffffffffffffffffffffffffffffffffffff161480610a0857503373ffffffffffffffffffffffffffffffffffffffff16600b60006001846109be91906131dd565b815260200190815260200160002060020160009054906101000a900473ffffffffffffffffffffffffffffffffffffffff1673ffffffffffffffffffffffffffffffffffffffff16145b15610b4957600181610a1a91906131dd565b92506000600b60008581526020019081526020016000209050806040518060a0016040529081600082015481526020016001820160009054906101000a900473ffffffffffffffffffffffffffffffffffffffff1673ffffffffffffffffffffffffffffffffffffffff1673ffffffffffffffffffffffffffffffffffffffff1681526020016002820160009054906101000a900473ffffffffffffffffffffffffffffffffffffffff1673ffffffffffffffffffffffffffffffffffffffff1673ffffffffffffffffffffffffffffffffffffffff168152602001600382015481526020016004820160009054906101000a900460ff161515151581525050838681518110610b2d57610b2c613259565b5b6020026020010181905250600185610b4591906131dd565b9450505b8080610b5490613211565b915050610917565b50809550505050505090565b6000610b7382611658565b9050919050565b6000600a54905090565b60008073ffffffffffffffffffffffffffffffffffffffff168273ffffffffffffffffffffffffffffffffffffffff1603610bf75760006040517f89c62b64000000000000000000000000000000000000000000000000000000008152600401610bee9190612a8a565b60405180910390fd5b600360008373ffffffffffffffffffffffffffffffffffffffff1673ffffffffffffffffffffffffffffffffffffffff168152602001908152602001600020549050919050565b6000600160076000828254610c5391906131dd565b9250508190555060006007549050610c6b3382611951565b610c75818561196f565b610c7f81846119cb565b8091505092915050565b610c91612808565b600b60008381526020019081526020016000206040518060a0016040529081600082015481526020016001820160009054906101000a900473ffffffffffffffffffffffffffffffffffffffff1673ffffffffffffffffffffffffffffffffffffffff1673ffffffffffffffffffffffffffffffffffffffff1681526020016002820160009054906101000a900473ffffffffffffffffffffffffffffffffffffffff1673ffffffffffffffffffffffffffffffffffffffff1673ffffffffffffffffffffffffffffffffffffffff168152602001600382015481526020016004820160009054906101000a900460ff1615151515815250509050919050565b606060018054610da090613146565b80601f0160208091040260200160405190810160405280929190818152602001828054610dcc90613146565b8015610e195780601f10610dee57610100808354040283529160200191610e19565b820191906000526020600020905b815481529060010190602001808311610dfc57829003601f168201915b5050505050905090565b6000600b60008381526020019081526020016000206003015490506000600b600084815260200190815260200160002060020160009054906101000a900473ffffffffffffffffffffffffffffffffffffffff169050813414610ebb576040517f08c379a0000000000000000000000000000000000000000000000000000000008152600401610eb2906132fa565b60405180910390fd5b6001600b600085815260200190815260200160002060040160006101000a81548160ff02191690831515021790555033600b600085815260200190815260200160002060020160006101000a81548173ffffffffffffffffffffffffffffffffffffffff021916908373ffffffffffffffffffffffffffffffffffffffff160217905550600160086000828254610f5291906131dd565b92505081905550610f64303385611bce565b610f6e3084610656565b600960009054906101000a900473ffffffffffffffffffffffffffffffffffffffff1673ffffffffffffffffffffffffffffffffffffffff166108fc600a549081150290604051600060405180830381858888f19350505050158015610fd8573d6000803e3d6000fd5b508073ffffffffffffffffffffffffffffffffffffffff166108fc349081150290604051600060405180830381858888f1935050505015801561101f573d6000803e3d6000fd5b50505050565b61103761103061171d565b8383611d3b565b5050565b61104684848461066c565b61105284848484611eaa565b50505050565b3373ffffffffffffffffffffffffffffffffffffffff16600960009054906101000a900473ffffffffffffffffffffffffffffffffffffffff1673ffffffffffffffffffffffffffffffffffffffff16146110e8576040517f08c379a00000000000000000000000000000000000000000000000000000000081526004016110df9061338c565b60405180910390fd5b80600a8190555050565b60606110fd82611658565b50600060066000848152602001908152602001600020805461111e90613146565b80601f016020809104026020016040519081016040528092919081815260200182805461114a90613146565b80156111975780601f1061116c57610100808354040283529160200191611197565b820191906000526020600020905b81548152906001019060200180831161117a57829003601f168201915b5050505050905060006111a8612061565b905060008151036111bd578192505050611200565b6000825111156111f25780826040516020016111da9291906133e8565b60405160208183030381529060405292505050611200565b6111fb84612078565b925050505b919050565b61120d612808565b600b600060075481526020019081526020016000206040518060a0016040529081600082015481526020016001820160009054906101000a900473ffffffffffffffffffffffffffffffffffffffff1673ffffffffffffffffffffffffffffffffffffffff1673ffffffffffffffffffffffffffffffffffffffff1681526020016002820160009054906101000a900473ffffffffffffffffffffffffffffffffffffffff1673ffffffffffffffffffffffffffffffffffffffff1673ffffffffffffffffffffffffffffffffffffffff168152602001600382015481526020016004820160009054906101000a900460ff161515151581525050905090565b60606000600754905060008167ffffffffffffffff81111561133257611331612d3d565b5b60405190808252806020026020018201604052801561136b57816020015b611358612808565b8152602001906001900390816113505790505b50905060008080600090505b848110156114cd5760018161138c91906131dd565b91506000600b60008481526020019081526020016000209050806040518060a0016040529081600082015481526020016001820160009054906101000a900473ffffffffffffffffffffffffffffffffffffffff1673ffffffffffffffffffffffffffffffffffffffff1673ffffffffffffffffffffffffffffffffffffffff1681526020016002820160009054906101000a900473ffffffffffffffffffffffffffffffffffffffff1673ffffffffffffffffffffffffffffffffffffffff1673ffffffffffffffffffffffffffffffffffffffff168152602001600382015481526020016004820160009054906101000a900460ff16151515158152505085858151811061149f5761149e613259565b5b60200260200101819052506001846114b791906131dd565b93505080806114c590613211565b915050611377565b508294505050505090565b6000600560008473ffffffffffffffffffffffffffffffffffffffff1673ffffffffffffffffffffffffffffffffffffffff16815260200190815260200160002060008373ffffffffffffffffffffffffffffffffffffffff1673ffffffffffffffffffffffffffffffffffffffff16815260200190815260200160002060009054906101000a900460ff16905092915050565b6000600754905090565b60007f80ac58cd000000000000000000000000000000000000000000000000000000007bffffffffffffffffffffffffffffffffffffffffffffffffffffffff1916827bffffffffffffffffffffffffffffffffffffffffffffffffffffffff1916148061164157507f5b5e139f000000000000000000000000000000000000000000000000000000007bffffffffffffffffffffffffffffffffffffffffffffffffffffffff1916827bffffffffffffffffffffffffffffffffffffffffffffffffffffffff1916145b806116515750611650826120e1565b5b9050919050565b6000806116648361214b565b9050600073ffffffffffffffffffffffffffffffffffffffff168173ffffffffffffffffffffffffffffffffffffffff16036116d757826040517f7e2732890000000000000000000000000000000000000000000000000000000081526004016116ce9190612ceb565b60405180910390fd5b80915050919050565b60006004600083815260200190815260200160002060009054906101000a900473ffffffffffffffffffffffffffffffffffffffff169050919050565b600033905090565b6117328383836001612188565b505050565b6000806117438461214b565b9050600073ffffffffffffffffffffffffffffffffffffffff168373ffffffffffffffffffffffffffffffffffffffff16146117855761178481848661234d565b5b600073ffffffffffffffffffffffffffffffffffffffff168173ffffffffffffffffffffffffffffffffffffffff1614611816576117c7600085600080612188565b6001600360008373ffffffffffffffffffffffffffffffffffffffff1673ffffffffffffffffffffffffffffffffffffffff168152602001908152602001600020600082825403925050819055505b600073ffffffffffffffffffffffffffffffffffffffff168573ffffffffffffffffffffffffffffffffffffffff1614611899576001600360008773ffffffffffffffffffffffffffffffffffffffff1673ffffffffffffffffffffffffffffffffffffffff168152602001908152602001600020600082825401925050819055505b846002600086815260200190815260200160002060006101000a81548173ffffffffffffffffffffffffffffffffffffffff021916908373ffffffffffffffffffffffffffffffffffffffff160217905550838573ffffffffffffffffffffffffffffffffffffffff168273ffffffffffffffffffffffffffffffffffffffff167fddf252ad1be2c89b69c2b068fc378daa952ba7f163c4a11628f55a4df523b3ef60405160405180910390a4809150509392505050565b61196b828260405180602001604052806000815250612411565b5050565b8060066000848152602001908152602001600020908161198f91906135b8565b507ff8e1a15aba9398e019f0b49df1a4fde98ee17ae345cb5f6b5e2c27f5033e8ce7826040516119bf9190612ceb565b60405180910390a15050565b600a543414611a0f576040517f08c379a0000000000000000000000000000000000000000000000000000000008152600401611a06906136fc565b60405180910390fd5b60008111611a52576040517f08c379a0000000000000000000000000000000000000000000000000000000008152600401611a499061378e565b60405180910390fd5b6040518060a001604052808381526020013073ffffffffffffffffffffffffffffffffffffffff1681526020013373ffffffffffffffffffffffffffffffffffffffff16815260200182815260200160011515815250600b60008481526020019081526020016000206000820151816000015560208201518160010160006101000a81548173ffffffffffffffffffffffffffffffffffffffff021916908373ffffffffffffffffffffffffffffffffffffffff16021790555060408201518160020160006101000a81548173ffffffffffffffffffffffffffffffffffffffff021916908373ffffffffffffffffffffffffffffffffffffffff1602179055506060820151816003015560808201518160040160006101000a81548160ff021916908315150217905550905050611b8b333084611bce565b817f9339409317fd01fabff48b703019016f49159bacc801ae872d2ca637d226e4c03033846001604051611bc294939291906137ae565b60405180910390a25050565b600073ffffffffffffffffffffffffffffffffffffffff168273ffffffffffffffffffffffffffffffffffffffff1603611c405760006040517f64a0ae92000000000000000000000000000000000000000000000000000000008152600401611c379190612a8a565b60405180910390fd5b6000611c4e83836000611737565b9050600073ffffffffffffffffffffffffffffffffffffffff168173ffffffffffffffffffffffffffffffffffffffff1603611cc157816040517f7e273289000000000000000000000000000000000000000000000000000000008152600401611cb89190612ceb565b60405180910390fd5b8373ffffffffffffffffffffffffffffffffffffffff168173ffffffffffffffffffffffffffffffffffffffff1614611d35578382826040517f64283d7b000000000000000000000000000000000000000000000000000000008152600401611d2c93929190613177565b60405180910390fd5b50505050565b600073ffffffffffffffffffffffffffffffffffffffff168273ffffffffffffffffffffffffffffffffffffffff1603611dac57816040517f5b08ba18000000000000000000000000000000000000000000000000000000008152600401611da39190612a8a565b60405180910390fd5b80600560008573ffffffffffffffffffffffffffffffffffffffff1673ffffffffffffffffffffffffffffffffffffffff16815260200190815260200160002060008473ffffffffffffffffffffffffffffffffffffffff1673ffffffffffffffffffffffffffffffffffffffff16815260200190815260200160002060006101000a81548160ff0219169083151502179055508173ffffffffffffffffffffffffffffffffffffffff168373ffffffffffffffffffffffffffffffffffffffff167f17307eab39ab6107e8899845ad3d59bd9653f200f220920489ca2b5937696c3183604051611e9d9190612919565b60405180910390a3505050565b60008373ffffffffffffffffffffffffffffffffffffffff163b111561205b578273ffffffffffffffffffffffffffffffffffffffff1663150b7a02611eee61171d565b8685856040518563ffffffff1660e01b8152600401611f109493929190613848565b6020604051808303816000875af1925050508015611f4c57506040513d601f19601f82011682018060405250810190611f4991906138a9565b60015b611fd0573d8060008114611f7c576040519150601f19603f3d011682016040523d82523d6000602084013e611f81565b606091505b506000815103611fc857836040517f64a0ae92000000000000000000000000000000000000000000000000000000008152600401611fbf9190612a8a565b60405180910390fd5b805181602001fd5b63150b7a0260e01b7bffffffffffffffffffffffffffffffffffffffffffffffffffffffff1916817bffffffffffffffffffffffffffffffffffffffffffffffffffffffff19161461205957836040517f64a0ae920000000000000000000000000000000000000000000000000000000081526004016120509190612a8a565b60405180910390fd5b505b50505050565b606060405180602001604052806000815250905090565b606061208382611658565b50600061208e612061565b905060008151116120ae57604051806020016040528060008152506120d9565b806120b88461242d565b6040516020016120c99291906133e8565b6040516020818303038152906040525b915050919050565b60007f01ffc9a7000000000000000000000000000000000000000000000000000000007bffffffffffffffffffffffffffffffffffffffffffffffffffffffff1916827bffffffffffffffffffffffffffffffffffffffffffffffffffffffff1916149050919050565b60006002600083815260200190815260200160002060009054906101000a900473ffffffffffffffffffffffffffffffffffffffff169050919050565b80806121c15750600073ffffffffffffffffffffffffffffffffffffffff168273ffffffffffffffffffffffffffffffffffffffff1614155b156122f55760006121d184611658565b9050600073ffffffffffffffffffffffffffffffffffffffff168373ffffffffffffffffffffffffffffffffffffffff161415801561223c57508273ffffffffffffffffffffffffffffffffffffffff168173ffffffffffffffffffffffffffffffffffffffff1614155b801561224f575061224d81846114d8565b155b1561229157826040517fa9fbf51f0000000000000000000000000000000000000000000000000000000081526004016122889190612a8a565b60405180910390fd5b81156122f357838573ffffffffffffffffffffffffffffffffffffffff168273ffffffffffffffffffffffffffffffffffffffff167f8c5be1e5ebec7d5bd14f71427d1e84f3dd0314c0f7b2291e5b200ac8c7c3b92560405160405180910390a45b505b836004600085815260200190815260200160002060006101000a81548173ffffffffffffffffffffffffffffffffffffffff021916908373ffffffffffffffffffffffffffffffffffffffff16021790555050505050565b6123588383836124fb565b61240c57600073ffffffffffffffffffffffffffffffffffffffff168373ffffffffffffffffffffffffffffffffffffffff16036123cd57806040517f7e2732890000000000000000000000000000000000000000000000000000000081526004016123c49190612ceb565b60405180910390fd5b81816040517f177e802f0000000000000000000000000000000000000000000000000000000081526004016124039291906138d6565b60405180910390fd5b505050565b61241b83836125bc565b6124286000848484611eaa565b505050565b60606000600161243c846126b5565b01905060008167ffffffffffffffff81111561245b5761245a612d3d565b5b6040519080825280601f01601f19166020018201604052801561248d5781602001600182028036833780820191505090505b509050600082602001820190505b6001156124f0578080600190039150507f3031323334353637383961626364656600000000000000000000000000000000600a86061a8153600a85816124e4576124e36138ff565b5b0494506000850361249b575b819350505050919050565b60008073ffffffffffffffffffffffffffffffffffffffff168373ffffffffffffffffffffffffffffffffffffffff16141580156125b357508273ffffffffffffffffffffffffffffffffffffffff168473ffffffffffffffffffffffffffffffffffffffff161480612574575061257384846114d8565b5b806125b257508273ffffffffffffffffffffffffffffffffffffffff1661259a836116e0565b73ffffffffffffffffffffffffffffffffffffffff16145b5b90509392505050565b600073ffffffffffffffffffffffffffffffffffffffff168273ffffffffffffffffffffffffffffffffffffffff160361262e5760006040517f64a0ae920000000000000000000000000000000000000000000000000000000081526004016126259190612a8a565b60405180910390fd5b600061263c83836000611737565b9050600073ffffffffffffffffffffffffffffffffffffffff168173ffffffffffffffffffffffffffffffffffffffff16146126b05760006040517f73c6ac6e0000000000000000000000000000000000000000000000000000000081526004016126a79190612a8a565b60405180910390fd5b505050565b600080600090507a184f03e93ff9f4daa797ed6e38ed64bf6a1f0100000000000000008310612713577a184f03e93ff9f4daa797ed6e38ed64bf6a1f0100000000000000008381612709576127086138ff565b5b0492506040810190505b6d04ee2d6d415b85acef81000000008310612750576d04ee2d6d415b85acef81000000008381612746576127456138ff565b5b0492506020810190505b662386f26fc10000831061277f57662386f26fc100008381612775576127746138ff565b5b0492506010810190505b6305f5e10083106127a8576305f5e100838161279e5761279d6138ff565b5b0492506008810190505b61271083106127cd5761271083816127c3576127c26138ff565b5b0492506004810190505b606483106127f057606483816127e6576127e56138ff565b5b0492506002810190505b600a83106127ff576001810190505b80915050919050565b6040518060a0016040528060008152602001600073ffffffffffffffffffffffffffffffffffffffff168152602001600073ffffffffffffffffffffffffffffffffffffffff168152602001600081526020016000151581525090565b6000604051905090565b600080fd5b600080fd5b60007fffffffff0000000000000000000000000000000000000000000000000000000082169050919050565b6128ae81612879565b81146128b957600080fd5b50565b6000813590506128cb816128a5565b92915050565b6000602082840312156128e7576128e661286f565b5b60006128f5848285016128bc565b91505092915050565b60008115159050919050565b612913816128fe565b82525050565b600060208201905061292e600083018461290a565b92915050565b600081519050919050565b600082825260208201905092915050565b60005b8381101561296e578082015181840152602081019050612953565b60008484015250505050565b6000601f19601f8301169050919050565b600061299682612934565b6129a0818561293f565b93506129b0818560208601612950565b6129b98161297a565b840191505092915050565b600060208201905081810360008301526129de818461298b565b905092915050565b6000819050919050565b6129f9816129e6565b8114612a0457600080fd5b50565b600081359050612a16816129f0565b92915050565b600060208284031215612a3257612a3161286f565b5b6000612a4084828501612a07565b91505092915050565b600073ffffffffffffffffffffffffffffffffffffffff82169050919050565b6000612a7482612a49565b9050919050565b612a8481612a69565b82525050565b6000602082019050612a9f6000830184612a7b565b92915050565b612aae81612a69565b8114612ab957600080fd5b50565b600081359050612acb81612aa5565b92915050565b60008060408385031215612ae857612ae761286f565b5b6000612af685828601612abc565b9250506020612b0785828601612a07565b9150509250929050565b600080600060608486031215612b2a57612b2961286f565b5b6000612b3886828701612abc565b9350506020612b4986828701612abc565b9250506040612b5a86828701612a07565b9150509250925092565b600081519050919050565b600082825260208201905092915050565b6000819050602082019050919050565b612b99816129e6565b82525050565b6000612baa82612a49565b9050919050565b612bba81612b9f565b82525050565b612bc9816128fe565b82525050565b60a082016000820151612be56000850182612b90565b506020820151612bf86020850182612bb1565b506040820151612c0b6040850182612bb1565b506060820151612c1e6060850182612b90565b506080820151612c316080850182612bc0565b50505050565b6000612c438383612bcf565b60a08301905092915050565b6000602082019050919050565b6000612c6782612b64565b612c718185612b6f565b9350612c7c83612b80565b8060005b83811015612cad578151612c948882612c37565b9750612c9f83612c4f565b925050600181019050612c80565b5085935050505092915050565b60006020820190508181036000830152612cd48184612c5c565b905092915050565b612ce5816129e6565b82525050565b6000602082019050612d006000830184612cdc565b92915050565b600060208284031215612d1c57612d1b61286f565b5b6000612d2a84828501612abc565b91505092915050565b600080fd5b600080fd5b7f4e487b7100000000000000000000000000000000000000000000000000000000600052604160045260246000fd5b612d758261297a565b810181811067ffffffffffffffff82111715612d9457612d93612d3d565b5b80604052505050565b6000612da7612865565b9050612db38282612d6c565b919050565b600067ffffffffffffffff821115612dd357612dd2612d3d565b5b612ddc8261297a565b9050602081019050919050565b82818337600083830152505050565b6000612e0b612e0684612db8565b612d9d565b905082815260208101848484011115612e2757612e26612d38565b5b612e32848285612de9565b509392505050565b600082601f830112612e4f57612e4e612d33565b5b8135612e5f848260208601612df8565b91505092915050565b60008060408385031215612e7f57612e7e61286f565b5b600083013567ffffffffffffffff811115612e9d57612e9c612874565b5b612ea985828601612e3a565b9250506020612eba85828601612a07565b9150509250929050565b60a082016000820151612eda6000850182612b90565b506020820151612eed6020850182612bb1565b506040820151612f006040850182612bb1565b506060820151612f136060850182612b90565b506080820151612f266080850182612bc0565b50505050565b600060a082019050612f416000830184612ec4565b92915050565b612f50816128fe565b8114612f5b57600080fd5b50565b600081359050612f6d81612f47565b92915050565b60008060408385031215612f8a57612f8961286f565b5b6000612f9885828601612abc565b9250506020612fa985828601612f5e565b9150509250929050565b600067ffffffffffffffff821115612fce57612fcd612d3d565b5b612fd78261297a565b9050602081019050919050565b6000612ff7612ff284612fb3565b612d9d565b90508281526020810184848401111561301357613012612d38565b5b61301e848285612de9565b509392505050565b600082601f83011261303b5761303a612d33565b5b813561304b848260208601612fe4565b91505092915050565b6000806000806080858703121561306e5761306d61286f565b5b600061307c87828801612abc565b945050602061308d87828801612abc565b935050604061309e87828801612a07565b925050606085013567ffffffffffffffff8111156130bf576130be612874565b5b6130cb87828801613026565b91505092959194509250565b600080604083850312156130ee576130ed61286f565b5b60006130fc85828601612abc565b925050602061310d85828601612abc565b9150509250929050565b7f4e487b7100000000000000000000000000000000000000000000000000000000600052602260045260246000fd5b6000600282049050600182168061315e57607f821691505b60208210810361317157613170613117565b5b50919050565b600060608201905061318c6000830186612a7b565b6131996020830185612cdc565b6131a66040830184612a7b565b949350505050565b7f4e487b7100000000000000000000000000000000000000000000000000000000600052601160045260246000fd5b60006131e8826129e6565b91506131f3836129e6565b925082820190508082111561320b5761320a6131ae565b5b92915050565b600061321c826129e6565b91507fffffffffffffffffffffffffffffffffffffffffffffffffffffffffffffffff820361324e5761324d6131ae565b5b600182019050919050565b7f4e487b7100000000000000000000000000000000000000000000000000000000600052603260045260246000fd5b7f506c65617365207375626d6974207468652061736b696e67207072696365206960008201527f6e206f7264657220746f20636f6d706c65746520746865207075726368617365602082015250565b60006132e460408361293f565b91506132ef82613288565b604082019050919050565b60006020820190508181036000830152613313816132d7565b9050919050565b7f4f6e6c79206f776e65722063616e20757064617465206c697374696e6720707260008201527f6963650000000000000000000000000000000000000000000000000000000000602082015250565b600061337660238361293f565b91506133818261331a565b604082019050919050565b600060208201905081810360008301526133a581613369565b9050919050565b600081905092915050565b60006133c282612934565b6133cc81856133ac565b93506133dc818560208601612950565b80840191505092915050565b60006133f482856133b7565b915061340082846133b7565b91508190509392505050565b60008190508160005260206000209050919050565b60006020601f8301049050919050565b600082821b905092915050565b60006008830261346e7fffffffffffffffffffffffffffffffffffffffffffffffffffffffffffffffff82613431565b6134788683613431565b95508019841693508086168417925050509392505050565b6000819050919050565b60006134b56134b06134ab846129e6565b613490565b6129e6565b9050919050565b6000819050919050565b6134cf8361349a565b6134e36134db826134bc565b84845461343e565b825550505050565b600090565b6134f86134eb565b6135038184846134c6565b505050565b5b818110156135275761351c6000826134f0565b600181019050613509565b5050565b601f82111561356c5761353d8161340c565b61354684613421565b81016020851015613555578190505b61356961356185613421565b830182613508565b50505b505050565b600082821c905092915050565b600061358f60001984600802613571565b1980831691505092915050565b60006135a8838361357e565b9150826002028217905092915050565b6135c182612934565b67ffffffffffffffff8111156135da576135d9612d3d565b5b6135e48254613146565b6135ef82828561352b565b600060209050601f8311600181146136225760008415613610578287015190505b61361a858261359c565b865550613682565b601f1984166136308661340c565b60005b8281101561365857848901518255600182019150602085019450602081019050613633565b868310156136755784890151613671601f89168261357e565b8355505b6001600288020188555050505b505050505050565b7f486f706566756c6c792073656e64696e672074686520636f727265637420707260008201527f6963650000000000000000000000000000000000000000000000000000000000602082015250565b60006136e660238361293f565b91506136f18261368a565b604082019050919050565b60006020820190508181036000830152613715816136d9565b9050919050565b7f4d616b652073757265207468652070726963652069736e2774206e656761746960008201527f7665000000000000000000000000000000000000000000000000000000000000602082015250565b600061377860228361293f565b91506137838261371c565b604082019050919050565b600060208201905081810360008301526137a78161376b565b9050919050565b60006080820190506137c36000830187612a7b565b6137d06020830186612a7b565b6137dd6040830185612cdc565b6137ea606083018461290a565b95945050505050565b600081519050919050565b600082825260208201905092915050565b600061381a826137f3565b61382481856137fe565b9350613834818560208601612950565b61383d8161297a565b840191505092915050565b600060808201905061385d6000830187612a7b565b61386a6020830186612a7b565b6138776040830185612cdc565b8181036060830152613889818461380f565b905095945050505050565b6000815190506138a3816128a5565b92915050565b6000602082840312156138bf576138be61286f565b5b60006138cd84828501613894565b91505092915050565b60006040820190506138eb6000830185612a7b565b6138f86020830184612cdc565b9392505050565b7f4e487b7100000000000000000000000000000000000000000000000000000000600052601260045260246000fdfea26469706673582212204c3b707db40a6c54c355aedea430566c0e5de91213777b395c355f500341944764736f6c63430008140033",
  "linkReferences": {},
  "deployedLinkReferences": {}
}