{
  "contractName": "Course",
  "abi": [
    {
      "inputs": [
        {
          "internalType": "address",
          "name": "_ceo",
          "type": "address"
        },
        {
          "internalType": "address",
          "name": "_owner",
          "type": "address"
        },
        {
          "internalType": "string",
          "name": "_name",
          "type": "string"
        },
        {
          "internalType": "string",
          "name": "_content",
          "type": "string"
        },
        {
          "internalType": "uint256",
          "name": "_target",
          "type": "uint256"
        },
        {
          "internalType": "uint256",
          "name": "_fundingPrice",
          "type": "uint256"
        },
        {
          "internalType": "uint256",
          "name": "_price",
          "type": "uint256"
        },
        {
          "internalType": "string",
          "name": "_img",
          "type": "string"
        }
      ],
      "stateMutability": "nonpayable",
      "type": "constructor"
    },
    {
      "inputs": [],
      "name": "ceo",
      "outputs": [
        {
          "internalType": "address",
          "name": "",
          "type": "address"
        }
      ],
      "stateMutability": "view",
      "type": "function"
    },
    {
      "inputs": [],
      "name": "content",
      "outputs": [
        {
          "internalType": "string",
          "name": "",
          "type": "string"
        }
      ],
      "stateMutability": "view",
      "type": "function"
    },
    {
      "inputs": [],
      "name": "count",
      "outputs": [
        {
          "internalType": "uint256",
          "name": "",
          "type": "uint256"
        }
      ],
      "stateMutability": "view",
      "type": "function"
    },
    {
      "inputs": [],
      "name": "fundingPrice",
      "outputs": [
        {
          "internalType": "uint256",
          "name": "",
          "type": "uint256"
        }
      ],
      "stateMutability": "view",
      "type": "function"
    },
    {
      "inputs": [],
      "name": "img",
      "outputs": [
        {
          "internalType": "string",
          "name": "",
          "type": "string"
        }
      ],
      "stateMutability": "view",
      "type": "function"
    },
    {
      "inputs": [],
      "name": "isOnline",
      "outputs": [
        {
          "internalType": "bool",
          "name": "",
          "type": "bool"
        }
      ],
      "stateMutability": "view",
      "type": "function"
    },
    {
      "inputs": [],
      "name": "name",
      "outputs": [
        {
          "internalType": "string",
          "name": "",
          "type": "string"
        }
      ],
      "stateMutability": "view",
      "type": "function"
    },
    {
      "inputs": [],
      "name": "owner",
      "outputs": [
        {
          "internalType": "address",
          "name": "",
          "type": "address"
        }
      ],
      "stateMutability": "view",
      "type": "function"
    },
    {
      "inputs": [],
      "name": "price",
      "outputs": [
        {
          "internalType": "uint256",
          "name": "",
          "type": "uint256"
        }
      ],
      "stateMutability": "view",
      "type": "function"
    },
    {
      "inputs": [],
      "name": "target",
      "outputs": [
        {
          "internalType": "uint256",
          "name": "",
          "type": "uint256"
        }
      ],
      "stateMutability": "view",
      "type": "function"
    },
    {
      "inputs": [
        {
          "internalType": "address",
          "name": "",
          "type": "address"
        }
      ],
      "name": "users",
      "outputs": [
        {
          "internalType": "uint256",
          "name": "",
          "type": "uint256"
        }
      ],
      "stateMutability": "view",
      "type": "function"
    },
    {
      "inputs": [],
      "name": "video",
      "outputs": [
        {
          "internalType": "string",
          "name": "",
          "type": "string"
        }
      ],
      "stateMutability": "view",
      "type": "function"
    },
    {
      "inputs": [],
      "name": "buy",
      "outputs": [],
      "stateMutability": "payable",
      "type": "function"
    },
    {
      "inputs": [
        {
          "internalType": "string",
          "name": "_video",
          "type": "string"
        }
      ],
      "name": "addVideo",
      "outputs": [],
      "stateMutability": "nonpayable",
      "type": "function"
    },
    {
      "inputs": [],
      "name": "getDetail",
      "outputs": [
        {
          "internalType": "string",
          "name": "",
          "type": "string"
        },
        {
          "internalType": "string",
          "name": "",
          "type": "string"
        },
        {
          "internalType": "uint256",
          "name": "",
          "type": "uint256"
        },
        {
          "internalType": "uint256",
          "name": "",
          "type": "uint256"
        },
        {
          "internalType": "uint256",
          "name": "",
          "type": "uint256"
        },
        {
          "internalType": "string",
          "name": "",
          "type": "string"
        },
        {
          "internalType": "string",
          "name": "",
          "type": "string"
        },
        {
          "internalType": "uint256",
          "name": "",
          "type": "uint256"
        },
        {
          "internalType": "bool",
          "name": "",
          "type": "bool"
        },
        {
          "internalType": "uint256",
          "name": "",
          "type": "uint256"
        }
      ],
      "stateMutability": "view",
      "type": "function"
    }
  ],
  "bytecode": "0x61012060405234801562000011575f80fd5b5060405162001ff138038062001ff1833981810160405281019062000037919062000319565b8773ffffffffffffffffffffffffffffffffffffffff1660a08173ffffffffffffffffffffffffffffffffffffffff16815250508673ffffffffffffffffffffffffffffffffffffffff1660808173ffffffffffffffffffffffffffffffffffffffff1681525050855f9081620000af919062000668565b508460019081620000c1919062000668565b508360c081815250508260e081815250508161010081815250508060029081620000ec919062000668565b5050505050505050506200074c565b5f604051905090565b5f80fd5b5f80fd5b5f73ffffffffffffffffffffffffffffffffffffffff82169050919050565b5f62000137826200010c565b9050919050565b62000149816200012b565b811462000154575f80fd5b50565b5f8151905062000167816200013e565b92915050565b5f80fd5b5f80fd5b5f601f19601f8301169050919050565b7f4e487b71000000000000000000000000000000000000000000000000000000005f52604160045260245ffd5b620001bd8262000175565b810181811067ffffffffffffffff82111715620001df57620001de62000185565b5b80604052505050565b5f620001f3620000fb565b9050620002018282620001b2565b919050565b5f67ffffffffffffffff82111562000223576200022262000185565b5b6200022e8262000175565b9050602081019050919050565b5f5b838110156200025a5780820151818401526020810190506200023d565b5f8484015250505050565b5f6200027b620002758462000206565b620001e8565b9050828152602081018484840111156200029a576200029962000171565b5b620002a78482856200023b565b509392505050565b5f82601f830112620002c657620002c56200016d565b5b8151620002d884826020860162000265565b91505092915050565b5f819050919050565b620002f581620002e1565b811462000300575f80fd5b50565b5f815190506200031381620002ea565b92915050565b5f805f805f805f80610100898b03121562000339576200033862000104565b5b5f620003488b828c0162000157565b98505060206200035b8b828c0162000157565b975050604089015167ffffffffffffffff8111156200037f576200037e62000108565b5b6200038d8b828c01620002af565b965050606089015167ffffffffffffffff811115620003b157620003b062000108565b5b620003bf8b828c01620002af565b9550506080620003d28b828c0162000303565b94505060a0620003e58b828c0162000303565b93505060c0620003f88b828c0162000303565b92505060e089015167ffffffffffffffff8111156200041c576200041b62000108565b5b6200042a8b828c01620002af565b9150509295985092959890939650565b5f81519050919050565b7f4e487b71000000000000000000000000000000000000000000000000000000005f52602260045260245ffd5b5f60028204905060018216806200048957607f821691505b6020821081036200049f576200049e62000444565b5b50919050565b5f819050815f5260205f209050919050565b5f6020601f8301049050919050565b5f82821b905092915050565b5f60088302620005037fffffffffffffffffffffffffffffffffffffffffffffffffffffffffffffffff82620004c6565b6200050f8683620004c6565b95508019841693508086168417925050509392505050565b5f819050919050565b5f620005506200054a6200054484620002e1565b62000527565b620002e1565b9050919050565b5f819050919050565b6200056b8362000530565b620005836200057a8262000557565b848454620004d2565b825550505050565b5f90565b620005996200058b565b620005a681848462000560565b505050565b5b81811015620005cd57620005c15f826200058f565b600181019050620005ac565b5050565b601f8211156200061c57620005e681620004a5565b620005f184620004b7565b8101602085101562000601578190505b620006196200061085620004b7565b830182620005ab565b50505b505050565b5f82821c905092915050565b5f6200063e5f198460080262000621565b1980831691505092915050565b5f6200065883836200062d565b9150826002028217905092915050565b62000673826200043a565b67ffffffffffffffff8111156200068f576200068e62000185565b5b6200069b825462000471565b620006a8828285620005d1565b5f60209050601f831160018114620006de575f8415620006c9578287015190505b620006d585826200064b565b86555062000744565b601f198416620006ee86620004a5565b5f5b828110156200071757848901518255600182019150602085019450602081019050620006f0565b8683101562000737578489015162000733601f8916826200062d565b8355505b6001600288020188555050505b505050505050565b60805160a05160c05160e05161010051611813620007de5f395f81816106280152818161098f0152610a6b01525f81816104790152818161060701528181610a450152610b2701525f81816105e601528181610b550152610e1801525f818161096b0152610c3c01525f81816105360152818161094701528181610baf01528181610ca00152610d2901526118135ff3fe6080604052600436106100e7575f3560e01c80638a4d5a6711610089578063a6f2ae3a11610058578063a6f2ae3a146102c2578063a87430ba146102cc578063cd0a496314610308578063d4b8399214610330576100e7565b80638a4d5a671461021a5780638da5cb5b14610244578063908921fc1461026e578063a035b1fe14610298576100e7565b806333938bb7116100c557806333938bb714610169578063426bfd00146101935780635b2a4cff146101bd578063664ab18e146101f0576100e7565b806306661abd146100eb57806306fdde031461011557806311b006171461013f575b5f80fd5b3480156100f6575f80fd5b506100ff61035a565b60405161010c9190610e52565b60405180910390f35b348015610120575f80fd5b50610129610360565b6040516101369190610ef5565b60405180910390f35b34801561014a575f80fd5b506101536103eb565b6040516101609190610ef5565b60405180910390f35b348015610174575f80fd5b5061017d610477565b60405161018a9190610e52565b60405180910390f35b34801561019e575f80fd5b506101a761049b565b6040516101b49190610ef5565b60405180910390f35b3480156101c8575f80fd5b506101d1610527565b6040516101e79a99989796959493929190610f2f565b60405180910390f35b3480156101fb575f80fd5b506102046108a7565b6040516102119190610fe5565b60405180910390f35b348015610225575f80fd5b5061022e6108b9565b60405161023b9190610ef5565b60405180910390f35b34801561024f575f80fd5b50610258610945565b604051610265919061103d565b60405180910390f35b348015610279575f80fd5b50610282610969565b60405161028f919061103d565b60405180910390f35b3480156102a3575f80fd5b506102ac61098d565b6040516102b99190610e52565b60405180910390f35b6102ca6109b1565b005b3480156102d7575f80fd5b506102f260048036038101906102ed9190611091565b610d12565b6040516102ff9190610e52565b60405180910390f35b348015610313575f80fd5b5061032e600480360381019061032991906111e8565b610d27565b005b34801561033b575f80fd5b50610344610e16565b6040516103519190610e52565b60405180910390f35b60055481565b5f805461036c9061125c565b80601f01602080910402602001604051908101604052809291908181526020018280546103989061125c565b80156103e35780601f106103ba576101008083540402835291602001916103e3565b820191905f5260205f20905b8154815290600101906020018083116103c657829003601f168201915b505050505081565b600380546103f89061125c565b80601f01602080910402602001604051908101604052809291908181526020018280546104249061125c565b801561046f5780601f106104465761010080835404028352916020019161046f565b820191905f5260205f20905b81548152906001019060200180831161045257829003601f168201915b505050505081565b7f000000000000000000000000000000000000000000000000000000000000000081565b600280546104a89061125c565b80601f01602080910402602001604051908101604052809291908181526020018280546104d49061125c565b801561051f5780601f106104f65761010080835404028352916020019161051f565b820191905f5260205f20905b81548152906001019060200180831161050257829003601f168201915b505050505081565b6060805f805f6060805f805f807f000000000000000000000000000000000000000000000000000000000000000073ffffffffffffffffffffffffffffffffffffffff163373ffffffffffffffffffffffffffffffffffffffff16146105da575f60065f3373ffffffffffffffffffffffffffffffffffffffff1673ffffffffffffffffffffffffffffffffffffffff1681526020019081526020015f2054116105d25760026105d5565b60015b6105dc565b5f5b60ff1690505f60017f00000000000000000000000000000000000000000000000000000000000000007f00000000000000000000000000000000000000000000000000000000000000007f00000000000000000000000000000000000000000000000000000000000000006002600360055460045f9054906101000a900460ff168989805461066a9061125c565b80601f01602080910402602001604051908101604052809291908181526020018280546106969061125c565b80156106e15780601f106106b8576101008083540402835291602001916106e1565b820191905f5260205f20905b8154815290600101906020018083116106c457829003601f168201915b505050505099508880546106f49061125c565b80601f01602080910402602001604051908101604052809291908181526020018280546107209061125c565b801561076b5780601f106107425761010080835404028352916020019161076b565b820191905f5260205f20905b81548152906001019060200180831161074e57829003601f168201915b5050505050985084805461077e9061125c565b80601f01602080910402602001604051908101604052809291908181526020018280546107aa9061125c565b80156107f55780601f106107cc576101008083540402835291602001916107f5565b820191905f5260205f20905b8154815290600101906020018083116107d857829003601f168201915b505050505094508380546108089061125c565b80601f01602080910402602001604051908101604052809291908181526020018280546108349061125c565b801561087f5780601f106108565761010080835404028352916020019161087f565b820191905f5260205f20905b81548152906001019060200180831161086257829003601f168201915b505050505093509a509a509a509a509a509a509a509a509a509a505090919293949596979899565b60045f9054906101000a900460ff1681565b600180546108c69061125c565b80601f01602080910402602001604051908101604052809291908181526020018280546108f29061125c565b801561093d5780601f106109145761010080835404028352916020019161093d565b820191905f5260205f20905b81548152906001019060200180831161092057829003601f168201915b505050505081565b7f000000000000000000000000000000000000000000000000000000000000000081565b7f000000000000000000000000000000000000000000000000000000000000000081565b7f000000000000000000000000000000000000000000000000000000000000000081565b5f60065f3373ffffffffffffffffffffffffffffffffffffffff1673ffffffffffffffffffffffffffffffffffffffff1681526020019081526020015f205414610a30576040517f08c379a0000000000000000000000000000000000000000000000000000000008152600401610a27906112d6565b60405180910390fd5b60045f9054906101000a900460ff16610a69577f0000000000000000000000000000000000000000000000000000000000000000610a8b565b7f00000000000000000000000000000000000000000000000000000000000000005b3414610acc576040517f08c379a0000000000000000000000000000000000000000000000000000000008152600401610ac39061133e565b60405180910390fd5b3460065f3373ffffffffffffffffffffffffffffffffffffffff1673ffffffffffffffffffffffffffffffffffffffff1681526020019081526020015f208190555060055f815480929190610b2090611389565b91905055507f0000000000000000000000000000000000000000000000000000000000000000600554610b5391906113d0565b7f000000000000000000000000000000000000000000000000000000000000000011158015610b8e575060045f9054906101000a900460ff16155b15610c1657600160045f6101000a81548160ff0219169083151502179055507f000000000000000000000000000000000000000000000000000000000000000073ffffffffffffffffffffffffffffffffffffffff166108fc4790811502906040515f60405180830381858888f19350505050158015610c10573d5f803e3d5ffd5b50610d10565b60045f9054906101000a900460ff1615610d0f575f600a34610c38919061143e565b90507f000000000000000000000000000000000000000000000000000000000000000073ffffffffffffffffffffffffffffffffffffffff166108fc8290811502906040515f60405180830381858888f19350505050158015610c9d573d5f803e3d5ffd5b507f000000000000000000000000000000000000000000000000000000000000000073ffffffffffffffffffffffffffffffffffffffff166108fc8234610ce4919061146e565b90811502906040515f60405180830381858888f19350505050158015610d0c573d5f803e3d5ffd5b50505b5b565b6006602052805f5260405f205f915090505481565b7f000000000000000000000000000000000000000000000000000000000000000073ffffffffffffffffffffffffffffffffffffffff163373ffffffffffffffffffffffffffffffffffffffff1614610db5576040517f08c379a0000000000000000000000000000000000000000000000000000000008152600401610dac906114eb565b60405180910390fd5b60045f9054906101000a900460ff16610e03576040517f08c379a0000000000000000000000000000000000000000000000000000000008152600401610dfa90611553565b60405180910390fd5b8060039081610e12919061170e565b5050565b7f000000000000000000000000000000000000000000000000000000000000000081565b5f819050919050565b610e4c81610e3a565b82525050565b5f602082019050610e655f830184610e43565b92915050565b5f81519050919050565b5f82825260208201905092915050565b5f5b83811015610ea2578082015181840152602081019050610e87565b5f8484015250505050565b5f601f19601f8301169050919050565b5f610ec782610e6b565b610ed18185610e75565b9350610ee1818560208601610e85565b610eea81610ead565b840191505092915050565b5f6020820190508181035f830152610f0d8184610ebd565b905092915050565b5f8115159050919050565b610f2981610f15565b82525050565b5f610140820190508181035f830152610f48818d610ebd565b90508181036020830152610f5c818c610ebd565b9050610f6b604083018b610e43565b610f78606083018a610e43565b610f856080830189610e43565b81810360a0830152610f978188610ebd565b905081810360c0830152610fab8187610ebd565b9050610fba60e0830186610e43565b610fc8610100830185610f20565b610fd6610120830184610e43565b9b9a5050505050505050505050565b5f602082019050610ff85f830184610f20565b92915050565b5f73ffffffffffffffffffffffffffffffffffffffff82169050919050565b5f61102782610ffe565b9050919050565b6110378161101d565b82525050565b5f6020820190506110505f83018461102e565b92915050565b5f604051905090565b5f80fd5b5f80fd5b6110708161101d565b811461107a575f80fd5b50565b5f8135905061108b81611067565b92915050565b5f602082840312156110a6576110a561105f565b5b5f6110b38482850161107d565b91505092915050565b5f80fd5b5f80fd5b7f4e487b71000000000000000000000000000000000000000000000000000000005f52604160045260245ffd5b6110fa82610ead565b810181811067ffffffffffffffff82111715611119576111186110c4565b5b80604052505050565b5f61112b611056565b905061113782826110f1565b919050565b5f67ffffffffffffffff821115611156576111556110c4565b5b61115f82610ead565b9050602081019050919050565b828183375f83830152505050565b5f61118c6111878461113c565b611122565b9050828152602081018484840111156111a8576111a76110c0565b5b6111b384828561116c565b509392505050565b5f82601f8301126111cf576111ce6110bc565b5b81356111df84826020860161117a565b91505092915050565b5f602082840312156111fd576111fc61105f565b5b5f82013567ffffffffffffffff81111561121a57611219611063565b5b611226848285016111bb565b91505092915050565b7f4e487b71000000000000000000000000000000000000000000000000000000005f52602260045260245ffd5b5f600282049050600182168061127357607f821691505b6020821081036112865761128561122f565b5b50919050565b7f557365722068617320616c7265616479207075726368617365640000000000005f82015250565b5f6112c0601a83610e75565b91506112cb8261128c565b602082019050919050565b5f6020820190508181035f8301526112ed816112b4565b9050919050565b7f496e636f7272656374207061796d656e7420616d6f756e7400000000000000005f82015250565b5f611328601883610e75565b9150611333826112f4565b602082019050919050565b5f6020820190508181035f8301526113558161131c565b9050919050565b7f4e487b71000000000000000000000000000000000000000000000000000000005f52601160045260245ffd5b5f61139382610e3a565b91507fffffffffffffffffffffffffffffffffffffffffffffffffffffffffffffffff82036113c5576113c461135c565b5b600182019050919050565b5f6113da82610e3a565b91506113e583610e3a565b92508282026113f381610e3a565b9150828204841483151761140a5761140961135c565b5b5092915050565b7f4e487b71000000000000000000000000000000000000000000000000000000005f52601260045260245ffd5b5f61144882610e3a565b915061145383610e3a565b92508261146357611462611411565b5b828204905092915050565b5f61147882610e3a565b915061148383610e3a565b925082820390508181111561149b5761149a61135c565b5b92915050565b7f4f6e6c79206f776e65722063616e2061646420766964656f00000000000000005f82015250565b5f6114d5601883610e75565b91506114e0826114a1565b602082019050919050565b5f6020820190508181035f830152611502816114c9565b9050919050565b7f436f75727365206d757374206265206f6e6c696e6500000000000000000000005f82015250565b5f61153d601583610e75565b915061154882611509565b602082019050919050565b5f6020820190508181035f83015261156a81611531565b9050919050565b5f819050815f5260205f209050919050565b5f6020601f8301049050919050565b5f82821b905092915050565b5f600883026115cd7fffffffffffffffffffffffffffffffffffffffffffffffffffffffffffffffff82611592565b6115d78683611592565b95508019841693508086168417925050509392505050565b5f819050919050565b5f61161261160d61160884610e3a565b6115ef565b610e3a565b9050919050565b5f819050919050565b61162b836115f8565b61163f61163782611619565b84845461159e565b825550505050565b5f90565b611653611647565b61165e818484611622565b505050565b5b81811015611681576116765f8261164b565b600181019050611664565b5050565b601f8211156116c65761169781611571565b6116a084611583565b810160208510156116af578190505b6116c36116bb85611583565b830182611663565b50505b505050565b5f82821c905092915050565b5f6116e65f19846008026116cb565b1980831691505092915050565b5f6116fe83836116d7565b9150826002028217905092915050565b61171782610e6b565b67ffffffffffffffff8111156117305761172f6110c4565b5b61173a825461125c565b611745828285611685565b5f60209050601f831160018114611776575f8415611764578287015190505b61176e85826116f3565b8655506117d5565b601f19841661178486611571565b5f5b828110156117ab57848901518255600182019150602085019450602081019050611786565b868310156117c857848901516117c4601f8916826116d7565b8355505b6001600288020188555050505b50505050505056fea26469706673582212201a14b4400c8d34bcb5316bb7f38db0a6aa72d39b62fa210c35855f97ff4d296264736f6c63430008150033",
  "immutableReferences": {
    "117": [
      {
        "length": 32,
        "start": 1334
      },
      {
        "length": 32,
        "start": 2375
      },
      {
        "length": 32,
        "start": 2991
      },
      {
        "length": 32,
        "start": 3232
      },
      {
        "length": 32,
        "start": 3369
      }
    ],
    "119": [
      {
        "length": 32,
        "start": 2411
      },
      {
        "length": 32,
        "start": 3132
      }
    ],
    "125": [
      {
        "length": 32,
        "start": 1510
      },
      {
        "length": 32,
        "start": 2901
      },
      {
        "length": 32,
        "start": 3608
      }
    ],
    "127": [
      {
        "length": 32,
        "start": 1145
      },
      {
        "length": 32,
        "start": 1543
      },
      {
        "length": 32,
        "start": 2629
      },
      {
        "length": 32,
        "start": 2855
      }
    ],
    "129": [
      {
        "length": 32,
        "start": 1576
      },
      {
        "length": 32,
        "start": 2447
      },
      {
        "length": 32,
        "start": 2667
      }
    ]
  },
  "source": "// SPDX-License-Identifier: MIT\npragma solidity ^0.8.21;\n\ncontract CourseList {\n    address public immutable ceo;\n    address[] public courses;\n\n    constructor() {\n        ceo = msg.sender;\n    }\n\n    function createCourse(\n        string memory _name,\n        string memory _content,\n        uint _target,\n        uint _fundingPrice,\n        uint _price,\n        string memory _img\n    ) public {\n        address newCourse = address(\n            new Course(\n                ceo,\n                msg.sender,\n                _name,\n                _content,\n                _target,\n                _fundingPrice,\n                _price,\n                _img\n            )\n        );\n        courses.push(newCourse);\n    }\n\n    function getCourses() public view returns (address[] memory) {\n        return courses;\n    }\n\n    function removeCourse(uint _index) public {\n        require(msg.sender == ceo, \"Only CEO can remove courses\");\n        require(_index < courses.length, \"Invalid index\");\n\n        courses[_index] = courses[courses.length - 1];\n        courses.pop();\n    }\n\n    function isCeo() public view returns (bool) {\n        return msg.sender == ceo;\n    }\n}\n\ncontract Course {\n    address public immutable owner;\n    address public immutable ceo;\n\n    string public name;\n    string public content;\n    uint public immutable target;\n    uint public immutable fundingPrice;\n    uint public immutable price;\n    string public img;\n    string public video;\n    bool public isOnline;\n    uint public count;\n    mapping(address => uint) public users;\n\n    constructor(\n        address _ceo,\n        address _owner,\n        string memory _name,\n        string memory _content,\n        uint _target,\n        uint _fundingPrice,\n        uint _price,\n        string memory _img\n    ) {\n        ceo = _ceo;\n        owner = _owner;\n        name = _name;\n        content = _content;\n        target = _target;\n        fundingPrice = _fundingPrice;\n        price = _price;\n        img = _img;\n    }\n\n    function buy() public payable {\n        require(users[msg.sender] == 0, \"User has already purchased\");\n        require(\n            msg.value == (isOnline ? price : fundingPrice),\n            \"Incorrect payment amount\"\n        );\n\n        users[msg.sender] = msg.value;\n        count++;\n\n        if (target <= count * fundingPrice && !isOnline) {\n            isOnline = true;\n            payable(owner).transfer(address(this).balance);\n        } else if (isOnline) {\n            uint ceoShare = msg.value / 10;\n            payable(ceo).transfer(ceoShare);\n            payable(owner).transfer(msg.value - ceoShare);\n        }\n    }\n\n    function addVideo(string memory _video) public {\n        require(msg.sender == owner, \"Only owner can add video\");\n        require(isOnline, \"Course must be online\");\n        video = _video;\n    }\n\n    function getDetail()\n        public\n        view\n        returns (\n            string memory,\n            string memory,\n            uint,\n            uint,\n            uint,\n            string memory,\n            string memory,\n            uint,\n            bool,\n            uint\n        )\n    {\n        uint role = (msg.sender == owner) ? 0 : (users[msg.sender] > 0 ? 1 : 2);\n        return (\n            name,\n            content,\n            target,\n            fundingPrice,\n            price,\n            img,\n            video,\n            count,\n            isOnline,\n            role\n        );\n    }\n}\n",
  "sourcePath": "/Users/godlikeonline/Documents/work_learning/learning-project/web3/imooc-on-blockchain-detail/contracts/Imooc.sol",
  "compiler": {
    "name": "solc",
    "version": "0.8.21+commit.d9974bed.Emscripten.clang"
  },
  "schemaVersion": "3.4.16",
  "updatedAt": "2024-09-18T10:23:06.585Z",
  "devdoc": {
    "kind": "dev",
    "methods": {},
    "version": 1
  },
  "userdoc": {
    "kind": "user",
    "methods": {},
    "version": 1
  }
}